{
  "contractName": "Crowdsale",
  "abi": [
    {
      "constant": true,
      "inputs": [],
      "name": "tokensForSale",
      "outputs": [
        {
          "name": "",
          "type": "uint256"
        }
      ],
      "payable": false,
      "stateMutability": "view",
      "type": "function"
    },
    {
      "constant": true,
      "inputs": [],
      "name": "roundOneTokensForSale",
      "outputs": [
        {
          "name": "",
          "type": "uint256"
        }
      ],
      "payable": false,
      "stateMutability": "view",
      "type": "function"
    },
    {
      "constant": true,
      "inputs": [],
      "name": "tokensPerDollarInCurrentSale",
      "outputs": [
        {
          "name": "",
          "type": "uint256"
        }
      ],
      "payable": false,
      "stateMutability": "view",
      "type": "function"
    },
    {
      "constant": true,
      "inputs": [],
      "name": "roundTwoTokenSold",
      "outputs": [
        {
          "name": "",
          "type": "uint256"
        }
      ],
      "payable": false,
      "stateMutability": "view",
      "type": "function"
    },
    {
      "constant": true,
      "inputs": [
        {
          "name": "",
          "type": "address"
        }
      ],
      "name": "accrediatedInvestors",
      "outputs": [
        {
          "name": "",
          "type": "bool"
        }
      ],
      "payable": false,
      "stateMutability": "view",
      "type": "function"
    },
    {
      "constant": true,
      "inputs": [],
      "name": "roundOnetokenSold",
      "outputs": [
        {
          "name": "",
          "type": "uint256"
        }
      ],
      "payable": false,
      "stateMutability": "view",
      "type": "function"
    },
    {
      "constant": true,
      "inputs": [],
      "name": "roundThreeTokensForSale",
      "outputs": [
        {
          "name": "",
          "type": "uint256"
        }
      ],
      "payable": false,
      "stateMutability": "view",
      "type": "function"
    },
    {
      "constant": true,
      "inputs": [],
      "name": "roundThreeTokenSold",
      "outputs": [
        {
          "name": "",
          "type": "uint256"
        }
      ],
      "payable": false,
      "stateMutability": "view",
      "type": "function"
    },
    {
      "constant": true,
      "inputs": [],
      "name": "wallet",
      "outputs": [
        {
          "name": "",
          "type": "address"
        }
      ],
      "payable": false,
      "stateMutability": "view",
      "type": "function"
    },
    {
      "constant": true,
      "inputs": [],
      "name": "minimumUsdCents",
      "outputs": [
        {
          "name": "",
          "type": "uint256"
        }
      ],
      "payable": false,
      "stateMutability": "view",
      "type": "function"
    },
    {
      "constant": true,
      "inputs": [],
      "name": "crowdSaleStarted",
      "outputs": [
        {
          "name": "",
          "type": "bool"
        }
      ],
      "payable": false,
      "stateMutability": "view",
      "type": "function"
    },
    {
      "constant": true,
      "inputs": [],
      "name": "roundFourTokensForSale",
      "outputs": [
        {
          "name": "",
          "type": "uint256"
        }
      ],
      "payable": false,
      "stateMutability": "view",
      "type": "function"
    },
    {
      "constant": false,
      "inputs": [],
      "name": "acceptOwnership",
      "outputs": [],
      "payable": false,
      "stateMutability": "nonpayable",
      "type": "function"
    },
    {
      "constant": true,
      "inputs": [],
      "name": "roundTwoTokensForSale",
      "outputs": [
        {
          "name": "",
          "type": "uint256"
        }
      ],
      "payable": false,
      "stateMutability": "view",
      "type": "function"
    },
    {
      "constant": true,
      "inputs": [],
      "name": "owner",
      "outputs": [
        {
          "name": "",
          "type": "address"
        }
      ],
      "payable": false,
      "stateMutability": "view",
      "type": "function"
    },
    {
      "constant": true,
      "inputs": [],
      "name": "roundFourTokenSold",
      "outputs": [
        {
          "name": "",
          "type": "uint256"
        }
      ],
      "payable": false,
      "stateMutability": "view",
      "type": "function"
    },
    {
      "constant": true,
      "inputs": [],
      "name": "Paused",
      "outputs": [
        {
          "name": "",
          "type": "bool"
        }
      ],
      "payable": false,
      "stateMutability": "view",
      "type": "function"
    },
    {
      "constant": true,
      "inputs": [],
      "name": "totalRaisedInCents",
      "outputs": [
        {
          "name": "",
          "type": "uint256"
        }
      ],
      "payable": false,
      "stateMutability": "view",
      "type": "function"
    },
    {
      "constant": true,
      "inputs": [
        {
          "name": "",
          "type": "address"
        }
      ],
      "name": "whitelistedContributors",
      "outputs": [
        {
          "name": "",
          "type": "bool"
        }
      ],
      "payable": false,
      "stateMutability": "view",
      "type": "function"
    },
    {
      "constant": true,
      "inputs": [],
      "name": "maximumUsdCentsForNonAccreditedInvestor",
      "outputs": [
        {
          "name": "",
          "type": "uint256"
        }
      ],
      "payable": false,
      "stateMutability": "view",
      "type": "function"
    },
    {
      "constant": true,
      "inputs": [],
      "name": "newOwner",
      "outputs": [
        {
          "name": "",
          "type": "address"
        }
      ],
      "payable": false,
      "stateMutability": "view",
      "type": "function"
    },
    {
      "constant": true,
      "inputs": [],
      "name": "maximumUsdCentsForAccreditedInvestor",
      "outputs": [
        {
          "name": "",
          "type": "uint256"
        }
      ],
      "payable": false,
      "stateMutability": "view",
      "type": "function"
    },
    {
      "constant": false,
      "inputs": [
        {
          "name": "_newOwner",
          "type": "address"
        }
      ],
      "name": "transferOwnership",
      "outputs": [],
      "payable": false,
      "stateMutability": "nonpayable",
      "type": "function"
    },
    {
      "constant": true,
      "inputs": [],
      "name": "hardCap",
      "outputs": [
        {
          "name": "",
          "type": "uint256"
        }
      ],
      "payable": false,
      "stateMutability": "view",
      "type": "function"
    },
    {
      "constant": true,
      "inputs": [],
      "name": "token",
      "outputs": [
        {
          "name": "",
          "type": "address"
        }
      ],
      "payable": false,
      "stateMutability": "view",
      "type": "function"
    },
    {
      "constant": true,
      "inputs": [],
      "name": "ethPrice",
      "outputs": [
        {
          "name": "",
          "type": "uint256"
        }
      ],
      "payable": false,
      "stateMutability": "view",
      "type": "function"
    },
    {
      "inputs": [
        {
          "name": "_newOwner",
          "type": "address"
        },
        {
          "name": "_wallet",
          "type": "address"
        },
        {
          "name": "_token",
          "type": "address"
        }
      ],
      "payable": false,
      "stateMutability": "nonpayable",
      "type": "constructor"
    },
    {
      "payable": true,
      "stateMutability": "payable",
      "type": "fallback"
    },
    {
      "anonymous": false,
      "inputs": [
        {
          "indexed": true,
          "name": "purchaser",
          "type": "address"
        },
        {
          "indexed": true,
          "name": "beneficiary",
          "type": "address"
        },
        {
          "indexed": false,
          "name": "value",
          "type": "uint256"
        },
        {
          "indexed": false,
          "name": "amount",
          "type": "uint256"
        }
      ],
      "name": "TokenPurchase",
      "type": "event"
    },
    {
      "anonymous": false,
      "inputs": [
        {
          "indexed": true,
          "name": "from",
          "type": "address"
        },
        {
          "indexed": true,
          "name": "_to",
          "type": "address"
        }
      ],
      "name": "OwnershipTransferred",
      "type": "event"
    },
    {
      "constant": false,
      "inputs": [
        {
          "name": "addrs",
          "type": "address[]"
        }
      ],
      "name": "authorizeKyc",
      "outputs": [
        {
          "name": "success",
          "type": "bool"
        }
      ],
      "payable": false,
      "stateMutability": "nonpayable",
      "type": "function"
    },
    {
      "constant": false,
      "inputs": [
        {
          "name": "addrs",
          "type": "address[]"
        }
      ],
      "name": "approveAccrediatedInvestors",
      "outputs": [
        {
          "name": "success",
          "type": "bool"
        }
      ],
      "payable": false,
      "stateMutability": "nonpayable",
      "type": "function"
    },
    {
      "constant": false,
      "inputs": [],
      "name": "pause",
      "outputs": [],
      "payable": false,
      "stateMutability": "nonpayable",
      "type": "function"
    },
    {
      "constant": false,
      "inputs": [],
      "name": "restartSale",
      "outputs": [],
      "payable": false,
      "stateMutability": "nonpayable",
      "type": "function"
    },
    {
      "constant": false,
      "inputs": [
        {
          "name": "_roundOneTokensForSale",
          "type": "uint256"
        },
        {
          "name": "_tokensPerDollarInCurrentSale",
          "type": "uint256"
        }
      ],
      "name": "startRoundOneSale",
      "outputs": [],
      "payable": false,
      "stateMutability": "nonpayable",
      "type": "function"
    },
    {
      "constant": false,
      "inputs": [],
      "name": "endRoundOneSale",
      "outputs": [],
      "payable": false,
      "stateMutability": "nonpayable",
      "type": "function"
    },
    {
      "constant": false,
      "inputs": [
        {
          "name": "_roundtwoTokensForSale",
          "type": "uint256"
        },
        {
          "name": "_tokensPerDollarInCurrentSale",
          "type": "uint256"
        }
      ],
      "name": "startRoundTwoSale",
      "outputs": [],
      "payable": false,
      "stateMutability": "nonpayable",
      "type": "function"
    },
    {
      "constant": false,
      "inputs": [],
      "name": "endRoundtwoSale",
      "outputs": [],
      "payable": false,
      "stateMutability": "nonpayable",
      "type": "function"
    },
    {
      "constant": false,
      "inputs": [
        {
          "name": "_roundThreeTokensForSale",
          "type": "uint256"
        },
        {
          "name": "_tokensPerDollarInCurrentSale",
          "type": "uint256"
        }
      ],
      "name": "startRoundThreeSale",
      "outputs": [],
      "payable": false,
      "stateMutability": "nonpayable",
      "type": "function"
    },
    {
      "constant": false,
      "inputs": [],
      "name": "endRoundThreeSale",
      "outputs": [],
      "payable": false,
      "stateMutability": "nonpayable",
      "type": "function"
    },
    {
      "constant": false,
      "inputs": [
        {
          "name": "_roundFourTokensForSale",
          "type": "uint256"
        },
        {
          "name": "_tokensPerDollarInCurrentSale",
          "type": "uint256"
        }
      ],
      "name": "startRoundFourSale",
      "outputs": [],
      "payable": false,
      "stateMutability": "nonpayable",
      "type": "function"
    },
    {
      "constant": false,
      "inputs": [],
      "name": "endRoundFourSale",
      "outputs": [],
      "payable": false,
      "stateMutability": "nonpayable",
      "type": "function"
    },
    {
      "constant": true,
      "inputs": [],
      "name": "getStage",
      "outputs": [
        {
          "name": "",
          "type": "string"
        }
      ],
      "payable": false,
      "stateMutability": "view",
      "type": "function"
    },
    {
      "constant": false,
      "inputs": [
        {
          "name": "_beneficiary",
          "type": "address"
        },
        {
          "name": "usdCents",
          "type": "uint256"
        }
      ],
      "name": "buyTokens",
      "outputs": [],
      "payable": false,
      "stateMutability": "nonpayable",
      "type": "function"
    },
    {
      "constant": true,
      "inputs": [
        {
          "name": "_usdCents",
          "type": "uint256"
        }
      ],
      "name": "_getTokenAmount",
      "outputs": [
        {
          "name": "",
          "type": "uint256"
        }
      ],
      "payable": false,
      "stateMutability": "view",
      "type": "function"
    },
    {
      "constant": false,
      "inputs": [],
      "name": "finalizeSale",
      "outputs": [],
      "payable": false,
      "stateMutability": "nonpayable",
      "type": "function"
    }
  ],
  "bytecode": "0x6080604052620927c06006556a01a784379d99db42000000600755600060088190556009819055600a819055600b556175306012556203d090601355622625a06014556015805460ff1916905534801561005857600080fd5b50604051606080611f838339810180604052606081101561007857600080fd5b508051602082015160409092015160008054600160a060020a031916600160a060020a0380851691909117909155919291821615156100b657600080fd5b60118054600160a060020a0319908116600160a060020a039485161790915560008054821694841694909417845560058054909116919092161790556017805460ff19169055611e7790819061010c90396000f3fe6080604052600436106102035763ffffffff7c01000000000000000000000000000000000000000000000000000000006000350416630752881a811461020857806312aef8c3146102435780632106b4651461026a57806324afc9e61461027f578063374f70921461029457806345854b84146102a957806345b8cfe1146102f05780634b7df250146103055780634c1732871461031a5780634f7c727c1461032f578063521eb2731461035f57806358a687ec146103905780635f7bf626146103a557806360688bda146103ba5780636cea50a1146103cf5780636dafee3e146103e457806370d7a0e7146103f957806374711285146104a957806376343d7a146104be57806379ba5097146104d35780637a99bb0a146104e85780637d06a070146105125780637f8f1a9b146105275780638456cb591461053c5780638da5cb5b146105515780639479de11146105665780639e87fac81461057b578063a7a485a014610590578063b79c594e14610640578063bc95070814610655578063c7b850dd1461066a578063d1e892ac1461069d578063d332b0f0146106b2578063d4ee1d90146106e2578063d6fc8426146106f7578063dd8133821461070c578063efcf8dcb1461073c578063f2fde38b1461076c578063fb86a4041461079f578063fc0c546a146107b4578063fcaa7664146107c9578063ff186b2e14610853575b600080fd5b34801561021457600080fd5b506102416004803603604081101561022b57600080fd5b50600160a060020a038135169060200135610868565b005b34801561024f57600080fd5b506102586109c9565b60408051918252519081900360200190f35b34801561027657600080fd5b506102586109cf565b34801561028b57600080fd5b506102586109d5565b3480156102a057600080fd5b506102586109db565b3480156102b557600080fd5b506102dc600480360360208110156102cc57600080fd5b5035600160a060020a03166109e1565b604080519115158252519081900360200190f35b3480156102fc57600080fd5b506102586109f6565b34801561031157600080fd5b506102586109fc565b34801561032657600080fd5b50610258610a02565b34801561033b57600080fd5b506102416004803603604081101561035257600080fd5b5080359060200135610a08565b34801561036b57600080fd5b50610374610bfe565b60408051600160a060020a039092168252519081900360200190f35b34801561039c57600080fd5b50610241610c0d565b3480156103b157600080fd5b50610258610ce6565b3480156103c657600080fd5b50610241610cec565b3480156103db57600080fd5b506102dc610d4c565b3480156103f057600080fd5b50610258610d55565b34801561040557600080fd5b506102dc6004803603602081101561041c57600080fd5b81019060208101813564010000000081111561043757600080fd5b82018360208201111561044957600080fd5b8035906020019184602083028401116401000000008311171561046b57600080fd5b919080806020026020016040519081016040528093929190818152602001838360200280828437600092019190915250929550610d5b945050505050565b3480156104b557600080fd5b50610241610dd8565b3480156104ca57600080fd5b50610241610e3f565b3480156104df57600080fd5b50610241610e97565b3480156104f457600080fd5b506102586004803603602081101561050b57600080fd5b5035610f1f565b34801561051e57600080fd5b50610258610f61565b34801561053357600080fd5b50610241610f67565b34801561054857600080fd5b50610241610fbf565b34801561055d57600080fd5b5061037461103f565b34801561057257600080fd5b5061025861104e565b34801561058757600080fd5b506102dc611054565b34801561059c57600080fd5b506102dc600480360360208110156105b357600080fd5b8101906020810181356401000000008111156105ce57600080fd5b8201836020820111156105e057600080fd5b8035906020019184602083028401116401000000008311171561060257600080fd5b919080806020026020016040519081016040528093929190818152602001838360200280828437600092019190915250929550611063945050505050565b34801561064c57600080fd5b506102416110d6565b34801561066157600080fd5b5061025861112e565b34801561067657600080fd5b506102dc6004803603602081101561068d57600080fd5b5035600160a060020a0316611134565b3480156106a957600080fd5b50610258611149565b3480156106be57600080fd5b50610241600480360360408110156106d557600080fd5b508035906020013561114f565b3480156106ee57600080fd5b50610374611205565b34801561070357600080fd5b50610258611214565b34801561071857600080fd5b506102416004803603604081101561072f57600080fd5b508035906020013561121a565b34801561074857600080fd5b506102416004803603604081101561075f57600080fd5b50803590602001356112ca565b34801561077857600080fd5b506102416004803603602081101561078f57600080fd5b5035600160a060020a03166113a7565b3480156107ab57600080fd5b506102586113ed565b3480156107c057600080fd5b506103746113f3565b3480156107d557600080fd5b506107de611402565b6040805160208082528351818301528351919283929083019185019080838360005b83811015610818578181015183820152602001610800565b50505050905090810190601f1680156108455780820380516001836020036101000a031916815260200191505b509250505060405180910390f35b34801561085f57600080fd5b50610258611741565b60155460ff16151561087957600080fd5b600160a060020a03821660009081526003602052604090205460ff1615156108eb576040805160e560020a62461bcd02815260206004820152601060248201527f4e6f74207768697465206c697374656400000000000000000000000000000000604482015290519081900360640190fd5b60175462010000900460ff16151560011415610951576040805160e560020a62461bcd02815260206004820152601360248201527f43726f776473616c652069732070617573656400000000000000000000000000604482015290519081900360640190fd5b61095b8282611747565b600061096682610f1f565b90506109728282611904565b61097c8382611a71565b60408051838152602081018390528151600160a060020a0386169233927f623b3804fa71d67900d064613da8f94b9617215ee90799290593e1745087ad18929081900390910190a3505050565b60075481565b600c5481565b60105481565b60095481565b60046020526000908152604090205460ff1681565b60085481565b600e5481565b600a5481565b600054600160a060020a03163314610a1f57600080fd5b60008111610a9d576040805160e560020a62461bcd02815260206004820152602d60248201527f746f6b656e732070657220646f6c6c61722073686f756c64206265206772656160448201527f746572207468656e207a65726f00000000000000000000000000000000000000606482015290519081900360840190fd5b600754600c54610ab490849063ffffffff611a7b16565b10610b2f576040805160e560020a62461bcd02815260206004820152603460248201527f726f756e642074776f20746f6b656e73207373686f756c64206265206c65737360448201527f207468656e20746f6b656e20666f722073616c65000000000000000000000000606482015290519081900360840190fd5b600360175460ff166009811115610b4257fe5b14610bbd576040805160e560020a62461bcd02815260206004820152602260248201527f63757272656e74207374616765206973206e6f7420726f756e64206f6e65206560448201527f6e64000000000000000000000000000000000000000000000000000000000000606482015290519081900360840190fd5b6017805460ff19166004179055610bdc81670de0b6b3a7640000611ae1565b601055610bf782670de0b6b3a764000063ffffffff611ae116565b600d555050565b601154600160a060020a031681565b600054600160a060020a03163314610c2457600080fd5b600960175460ff166009811115610c3757fe5b14610c4157600080fd5b600560009054906101000a9004600160a060020a0316600160a060020a0316634bb278f36040518163ffffffff167c0100000000000000000000000000000000000000000000000000000000028152600401602060405180830381600087803b158015610cad57600080fd5b505af1158015610cc1573d6000803e3d6000fd5b505050506040513d6020811015610cd757600080fd5b50511515610ce457600080fd5b565b60125481565b600054600160a060020a03163314610d0357600080fd5b600660175460ff166009811115610d1657fe5b14610d2057600080fd5b600a54600e5414610d3057600080fd5b601780546007919060ff19166001835b02179055506000601055565b60155460ff1681565b600f5481565b60008054600160a060020a03163314610d7357600080fd5b815160005b81811015610dce576001600360008684815181101515610d9457fe5b602090810291909101810151600160a060020a03168252810191909152604001600020805460ff1916911515919091179055600101610d78565b5060019392505050565b600054600160a060020a03163314610def57600080fd5b600160175460ff166009811115610e0257fe5b14610e0c57600080fd5b6017805460ff610100820416919060ff19166001836009811115610e2c57fe5b02179055506017805462ff000019169055565b600054600160a060020a03163314610e5657600080fd5b600460175460ff166009811115610e6957fe5b14610e7357600080fd5b600954600d5414610e8357600080fd5b601780546005919060ff1916600183610d40565b600154600160a060020a03163314610eae57600080fd5b60015460008054604051600160a060020a0393841693909116917f8be0079c531659141344cd1fd0a4f28419497f9722a3daafe3b4186f6b6457e091a3600180546000805473ffffffffffffffffffffffffffffffffffffffff19908116600160a060020a03841617909155169055565b60155460009060ff161515610f3357600080fd5b601054600090610f5a90610f4e85606463ffffffff611b7d16565b9063ffffffff611ae116565b9392505050565b600d5481565b600054600160a060020a03163314610f7e57600080fd5b600860175460ff166009811115610f9157fe5b14610f9b57600080fd5b600b54600f5414610fab57600080fd5b601780546009919060ff1916600183610d40565b600054600160a060020a03163314610fd657600080fd5b60175462010000900460ff1615610fec57600080fd5b60155460ff16151560011461100057600080fd5b6017805460ff8116919061ff00191661010083600981111561101e57fe5b021790555060178054600160ff199091161762ff0000191662010000179055565b600054600160a060020a031681565b600b5481565b60175462010000900460ff1681565b60008054600160a060020a0316331461107b57600080fd5b815160005b81811015610dce57600160046000868481518110151561109c57fe5b602090810291909101810151600160a060020a03168252810191909152604001600020805460ff1916911515919091179055600101611080565b600054600160a060020a031633146110ed57600080fd5b600260175460ff16600981111561110057fe5b1461110a57600080fd5b600854600c541461111a57600080fd5b601780546003919060ff1916600183610d40565b60165481565b60036020526000908152604090205460ff1681565b60135481565b600054600160a060020a0316331461116657600080fd5b6000811161117357600080fd5b60075461119d600d54611191600c5486611a7b90919063ffffffff16565b9063ffffffff611a7b16565b106111a757600080fd5b600560175460ff1660098111156111ba57fe5b146111c457600080fd5b6017805460ff191660061790556111e381670de0b6b3a7640000611ae1565b6010556111fe82670de0b6b3a764000063ffffffff611ae116565b600e555050565b600154600160a060020a031681565b60145481565b600054600160a060020a0316331461123157600080fd5b6000811161123e57600080fd5b600754611262600e54611191600d54611191600c5488611a7b90919063ffffffff16565b1061126c57600080fd5b600760175460ff16600981111561127f57fe5b1461128957600080fd5b6017805460ff191660081790556112a881670de0b6b3a7640000611ae1565b6010556112c382670de0b6b3a764000063ffffffff611ae116565b600f555050565b600054600160a060020a031633146112e157600080fd5b60155460ff161561133c576040805160e560020a62461bcd02815260206004820152601960248201527f43726f776473616c6520616c7265616479207374617274656400000000000000604482015290519081900360640190fd5b6000811161134957600080fd5b600754821061135757600080fd5b6015805460ff1990811660011790915560178054909116600217905561138582670de0b6b3a7640000611ae1565b600c556113a081670de0b6b3a764000063ffffffff611ae116565b6010555050565b600054600160a060020a031633146113be57600080fd5b6001805473ffffffffffffffffffffffffffffffffffffffff1916600160a060020a0392909216919091179055565b60065481565b600554600160a060020a031681565b6060600260175460ff16600981111561141757fe5b1415611457575060408051808201909152600f81527f526f756e64204f6e652053746172740000000000000000000000000000000000602082015261173e565b600360175460ff16600981111561146a57fe5b14156114aa575060408051808201909152600d81527f526f756e64204f6e6520456e6400000000000000000000000000000000000000602082015261173e565b600460175460ff1660098111156114bd57fe5b14156114fd575060408051808201909152600f81527f526f756e642074776f2053746172740000000000000000000000000000000000602082015261173e565b600560175460ff16600981111561151057fe5b1415611550575060408051808201909152600d81527f526f756e642054776f20456e6400000000000000000000000000000000000000602082015261173e565b600660175460ff16600981111561156357fe5b14156115a3575060408051808201909152601181527f526f756e64205468726565205374617274000000000000000000000000000000602082015261173e565b600760175460ff1660098111156115b657fe5b14156115f6575060408051808201909152600f81527f526f756e6420546872656520456e640000000000000000000000000000000000602082015261173e565b600860175460ff16600981111561160957fe5b1415611649575060408051808201909152601081527f526f756e6420466f757220537461727400000000000000000000000000000000602082015261173e565b600960175460ff16600981111561165c57fe5b141561169c575060408051808201909152600e81527f526f756e6420466f757220456e64000000000000000000000000000000000000602082015261173e565b600160175460ff1660098111156116af57fe5b14156116ef575060408051808201909152600681527f7061757365640000000000000000000000000000000000000000000000000000602082015261173e565b600060175460ff16600981111561170257fe5b141561173e575060408051808201909152601581527f43726f776453616c65204e6f742053746172746564000000000000000000000060208201525b90565b60025481565b600160a060020a03821660009081526004602052604090205460ff1615156001141561182857601254811015801561178157506014548111155b1515611823576040805160e560020a62461bcd02815260206004820152604e60248201527f45697468657220616d6f756e74206973206c657373207468656e206d696e696d60448201527f756d206f72206d6f7265207468656d206d6178696d756d20666f72204163637260648201527f656469746564496e766573746f72000000000000000000000000000000000000608482015290519081900360a40190fd5b611900565b600160a060020a03821660009081526004602052604090205460ff16151561190057601254811015801561185e57506013548111155b1515611900576040805160e560020a62461bcd02815260206004820152605260248201527f45697468657220616d6f756e74206973206c657373207468656e206d696e696d60448201527f756d206f72206d6f7265207468656d206d6178696d756d20666f72204e6f6e2060648201527f41636372656469746564496e766573746f720000000000000000000000000000608482015290519081900360a40190fd5b5050565b601654611917908363ffffffff611a7b16565b60168190556006541015611975576040805160e560020a62461bcd02815260206004820152601260248201527f6861726463617020697320726561636865640000000000000000000000000000604482015290519081900360640190fd5b600260175460ff16600981111561198857fe5b14156119b4576008546119a1908263ffffffff611a7b16565b6008819055600c54101561182357600080fd5b600460175460ff1660098111156119c757fe5b14156119f3576009546119e0908263ffffffff611a7b16565b6009819055600d54101561182357600080fd5b600660175460ff166009811115611a0657fe5b1415611a3257600a54611a1f908263ffffffff611a7b16565b600a819055600c54101561182357600080fd5b600860175460ff166009811115611a4557fe5b141561190057600b54611a5e908263ffffffff611a7b16565b600b819055600f54101561190057600080fd5b6119008282611bec565b600082820183811015611ad8576040805160e560020a62461bcd02815260206004820152601b60248201527f536166654d6174683a206164646974696f6e206f766572666c6f770000000000604482015290519081900360640190fd5b90505b92915050565b6000821515611af257506000611adb565b828202828482811515611b0157fe5b0414611ad8576040805160e560020a62461bcd02815260206004820152602160248201527f536166654d6174683a206d756c7469706c69636174696f6e206f766572666c6f60448201527f7700000000000000000000000000000000000000000000000000000000000000606482015290519081900360840190fd5b6000808211611bd6576040805160e560020a62461bcd02815260206004820152601a60248201527f536166654d6174683a206469766973696f6e206279207a65726f000000000000604482015290519081900360640190fd5b60008284811515611be357fe5b04949350505050565b600160a060020a03821660009081526004602052604090205460ff1615611d2b57600554604080517f6e71cb14000000000000000000000000000000000000000000000000000000008152600160a060020a038581166004830152602482018590526001604483015291519190921691636e71cb149160648083019260209291908290030181600087803b158015611c8357600080fd5b505af1158015611c97573d6000803e3d6000fd5b505050506040513d6020811015611cad57600080fd5b50511515611823576040805160e560020a62461bcd02815260206004820152602360248201527f636f756c64206e6f742062652061626c6520746f2064656c6976657220746f6b60448201527f656e730000000000000000000000000000000000000000000000000000000000606482015290519081900360840190fd5b600554604080517f6e71cb14000000000000000000000000000000000000000000000000000000008152600160a060020a038581166004830152602482018590526000604483018190529251931692636e71cb1492606480840193602093929083900390910190829087803b158015611da357600080fd5b505af1158015611db7573d6000803e3d6000fd5b505050506040513d6020811015611dcd57600080fd5b50511515611900576040805160e560020a62461bcd02815260206004820152602360248201527f636f756c64206e6f742062652061626c6520746f2064656c6976657220746f6b60448201527f656e730000000000000000000000000000000000000000000000000000000000606482015290519081900360840190fdfea165627a7a7230582024106f83ab751c86db234de0a4ac841b20105000501ba871fd8f40539a1344050029",
  "source": "pragma solidity  0.5.0;\n\ncontract Backers {\n\n    function issueTokens(address, uint256, bool) external returns(bool);\n    function finalize() external returns (bool);\n}\n\n/**\n * @dev Wrappers over Solidity's arithmetic operations with added overflow\n * checks.\n *\n * Arithmetic operations in Solidity wrap on overflow. This can easily result\n * in bugs, because programmers usually assume that an overflow raises an\n * error, which is the standard behavior in high level programming languages.\n * `SafeMath` restores this intuition by reverting the transaction when an\n * operation overflows.\n *\n * Using this library instead of the unchecked operations eliminates an entire\n * class of bugs, so it's recommended to use it always.\n */\nlibrary SafeMath {\n    /**\n     * @dev Returns the addition of two unsigned integers, reverting on\n     * overflow.\n     *\n     * Counterpart to Solidity's `+` operator.\n     *\n     * Requirements:\n     * - Addition cannot overflow.\n     */\n    function add(uint256 a, uint256 b) internal pure returns (uint256) {\n        uint256 c = a + b;\n        require(c >= a, \"SafeMath: addition overflow\");\n\n        return c;\n    }\n\n    /**\n     * @dev Returns the subtraction of two unsigned integers, reverting on\n     * overflow (when the result is negative).\n     *\n     * Counterpart to Solidity's `-` operator.\n     *\n     * Requirements:\n     * - Subtraction cannot overflow.\n     */\n    function sub(uint256 a, uint256 b) internal pure returns (uint256) {\n        require(b <= a, \"SafeMath: subtraction overflow\");\n        uint256 c = a - b;\n\n        return c;\n    }\n\n    /**\n     * @dev Returns the multiplication of two unsigned integers, reverting on\n     * overflow.\n     *\n     * Counterpart to Solidity's `*` operator.\n     *\n     * Requirements:\n     * - Multiplication cannot overflow.\n     */\n    function mul(uint256 a, uint256 b) internal pure returns (uint256) {\n        // Gas optimization: this is cheaper than requiring 'a' not being zero, but the\n        // benefit is lost if 'b' is also tested.\n        // See: https://github.com/OpenZeppelin/openzeppelin-solidity/pull/522\n        if (a == 0) {\n            return 0;\n        }\n\n        uint256 c = a * b;\n        require(c / a == b, \"SafeMath: multiplication overflow\");\n\n        return c;\n    }\n\n    /**\n     * @dev Returns the integer division of two unsigned integers. Reverts on\n     * division by zero. The result is rounded towards zero.\n     *\n     * Counterpart to Solidity's `/` operator. Note: this function uses a\n     * `revert` opcode (which leaves remaining gas untouched) while Solidity\n     * uses an invalid opcode to revert (consuming all remaining gas).\n     *\n     * Requirements:\n     * - The divisor cannot be zero.\n     */\n    function div(uint256 a, uint256 b) internal pure returns (uint256) {\n        // Solidity only automatically asserts when dividing by 0\n        require(b > 0, \"SafeMath: division by zero\");\n        uint256 c = a / b;\n        // assert(a == b * c + a % b); // There is no case in which this doesn't hold\n\n        return c;\n    }\n\n\n}\n\ncontract Owned {\n    address public owner;\n    address public newOwner;\n\n    event OwnershipTransferred(address indexed from, address indexed _to);\n\n    constructor(address _owner) public {\n        owner = _owner;\n    }\n\n    modifier onlyOwner {\n        require(msg.sender == owner);\n        _;\n    }\n\n    function transferOwnership(address _newOwner) public onlyOwner {\n        newOwner = _newOwner;\n    }\n    function acceptOwnership() public {\n        require(msg.sender == newOwner);\n        emit OwnershipTransferred(owner, newOwner);\n        owner = newOwner;\n        newOwner = address(0);\n    }\n}\n\n\ncontract Crowdsale is Owned { \n  \n  using SafeMath for uint256;\n  uint256 public ethPrice; // 1 Ether price in USD cents.\n\n   mapping (address => bool) public whitelistedContributors;\n   mapping (address => bool) public accrediatedInvestors;\n\n\n  // The token being sold\n  Backers public token;\n\n  uint256 public hardCap = 600000;\n\n  uint256 public tokensForSale = 2000000 ether;\n\n  uint256 public roundOnetokenSold = 0;\n  uint256 public roundTwoTokenSold = 0;\n  uint256 public roundThreeTokenSold = 0;  \n  uint256 public roundFourTokenSold = 0;\n\n\n  uint256 public roundOneTokensForSale;\n  uint256 public roundTwoTokensForSale;\n  uint256 public roundThreeTokensForSale;  \n  uint256 public roundFourTokensForSale;\n\n  //tokens per dollar  \n  uint256 public tokensPerDollarInCurrentSale;  \n\n  // Address where funds are collected\n  address public wallet;\n\n  //Sale minimum maximum values for accrdiated and non accredoiated investors\n  uint256 public minimumUsdCents = 30000;\n  uint256 public maximumUsdCentsForNonAccreditedInvestor = 250000;\n  uint256 public maximumUsdCentsForAccreditedInvestor = 2500000;\n  \n  bool public crowdSaleStarted = false;\n\n  // Amount of USD raised in cents\n  uint256 public totalRaisedInCents;\n  \n  enum Stages {CrowdSaleNotStarted, Pause, RoundOneStart,RoundOneEnd,RoundtwoStart,RoundTwoEnd,RoundThreeStart,RoundThreeEnd,RoundFourStart,RoundFourEnd}\n \n  Stages currentStage;\n  Stages previousStage;\n  bool public Paused;\n\n   modifier CrowdsaleStarted(){\n\n      require(crowdSaleStarted);\n      _;\n   }\n \n    /**\n    * Event for token purchase logging\n    * @param purchaser who paid for the tokens\n    * @param beneficiary who got the tokens\n    * @param value weis paid for purchase\n    * @param amount amount of tokens purchased\n    */\n    event TokenPurchase(address indexed purchaser, address indexed beneficiary, uint256 value, uint256 amount);\n\n    /**\n    *@dev initializes the crowdsale contract \n    * @param _newOwner Address who has special power to change the ether price in cents according to the market price\n    * @param _wallet Address where collected funds will be forwarded to\n    * @param _token Address of the token being sold\n    */\n    constructor(address _newOwner, address _wallet, Backers _token) Owned(_newOwner) public {\n\n        require(_wallet != address(0));\n        //require(_token != address(0));\n        wallet = _wallet;\n        owner = _newOwner;\n        token = _token;\n        currentStage = Stages.CrowdSaleNotStarted;\n\n    }\n\n    /**\n    * @dev whitelist addresses of investors.\n    * @param addrs ,array of addresses of investors to be whitelisted\n    * Note:= Array length must be less than 200.process\n    */\n    function authorizeKyc(address[] memory addrs) public onlyOwner returns (bool success) {\n\n        uint arrayLength = addrs.length;\n        for (uint x = 0; x < arrayLength; x++) \n        {\n            whitelistedContributors[addrs[x]] = true;\n        }\n        return true;\n    }\n\n    /**\n    * @dev whitelist addresses of investors.\n    * @param addrs ,array of addresses of investors to be whitelisted\n    * Note:= Array length must be less than 200.process\n    */\n    function approveAccrediatedInvestors(address[] memory addrs) public onlyOwner returns (bool success) {\n\n        uint arrayLength = addrs.length;\n        for (uint x = 0; x < arrayLength; x++) \n        {\n            accrediatedInvestors[addrs[x]] = true;\n        }\n        return true;\n    }\n\n\n    /**\n    * @dev fallback function ***DO NOT OVERRIDE***\n    */\n    function () external payable {\n    \n     revert();\n     \n    }\n\n    /**\n    * @dev calling this function will pause the sale\n    */\n    \n    function pause() public onlyOwner {\n      require(Paused == false);\n      require(crowdSaleStarted == true);\n      previousStage=currentStage;\n      currentStage=Stages.Pause;\n      Paused = true;\n    }\n  \n    function restartSale() public onlyOwner {\n      require(currentStage == Stages.Pause);\n      currentStage=previousStage;\n      Paused = false;\n    }\n\n    function startRoundOneSale(uint256 _roundOneTokensForSale, uint256 _tokensPerDollarInCurrentSale) public onlyOwner {\n\n      require(!crowdSaleStarted,'Crowdsale already started');\n      require(_tokensPerDollarInCurrentSale > 0);\n      require(_roundOneTokensForSale<tokensForSale);\n      crowdSaleStarted = true;\n      currentStage = Stages.RoundOneStart;\n      roundOneTokensForSale = _roundOneTokensForSale.mul(1 ether);\n      tokensPerDollarInCurrentSale = _tokensPerDollarInCurrentSale.mul(1 ether);\n      \n    }\n\n    function endRoundOneSale() public onlyOwner {\n\n      require(currentStage == Stages.RoundOneStart);\n      require(roundOneTokensForSale == roundOnetokenSold);\n      currentStage = Stages.RoundOneEnd;\n      tokensPerDollarInCurrentSale = 0;\n\n    }\n\n    function startRoundTwoSale(uint256 _roundtwoTokensForSale, uint256 _tokensPerDollarInCurrentSale) public onlyOwner {\n    \n    require(_tokensPerDollarInCurrentSale > 0,'tokens per dollar should be greater then zero');\n    require(_roundtwoTokensForSale.add(roundOneTokensForSale)<tokensForSale,'round two tokens sshould be less then token for sale');\n    require(currentStage == Stages.RoundOneEnd,'current stage is not round one end');\n    currentStage = Stages.RoundtwoStart;\n    tokensPerDollarInCurrentSale = _tokensPerDollarInCurrentSale.mul(1 ether);\n    roundTwoTokensForSale = _roundtwoTokensForSale.mul(1 ether);   \n\n    }\n\n    function endRoundtwoSale() public onlyOwner {\n\n    require(currentStage == Stages.RoundtwoStart);\n    require(roundTwoTokensForSale == roundTwoTokenSold);\n    currentStage = Stages.RoundTwoEnd;\n    tokensPerDollarInCurrentSale = 0;\n   \n    }\n\n    function startRoundThreeSale(uint256 _roundThreeTokensForSale, uint256 _tokensPerDollarInCurrentSale) public onlyOwner {\n\n    require(_tokensPerDollarInCurrentSale > 0);\n    require(_roundThreeTokensForSale.add(roundOneTokensForSale).add(roundTwoTokensForSale)<tokensForSale);\n    require(currentStage == Stages.RoundTwoEnd);\n    currentStage = Stages.RoundThreeStart;\n    tokensPerDollarInCurrentSale = _tokensPerDollarInCurrentSale.mul(1 ether);\n    roundThreeTokensForSale = _roundThreeTokensForSale.mul(1 ether);   \n\n    }\n\n    function endRoundThreeSale() public onlyOwner {\n\n    require(currentStage == Stages.RoundThreeStart);\n    require(roundThreeTokensForSale == roundThreeTokenSold);\n    currentStage = Stages.RoundThreeEnd;\n    tokensPerDollarInCurrentSale = 0;\n\n    }\n\n    function startRoundFourSale(uint256 _roundFourTokensForSale, uint256 _tokensPerDollarInCurrentSale) public onlyOwner {\n\n    require(_tokensPerDollarInCurrentSale > 0);\n    require(_roundFourTokensForSale.add(roundOneTokensForSale).add(roundTwoTokensForSale).add(roundThreeTokensForSale)<tokensForSale);\n    require(currentStage == Stages.RoundThreeEnd);\n    currentStage = Stages.RoundFourStart;\n    tokensPerDollarInCurrentSale = _tokensPerDollarInCurrentSale.mul(1 ether);\n    roundFourTokensForSale = _roundFourTokensForSale.mul(1 ether);   \n\n    }\n\n    function endRoundFourSale() public onlyOwner {\n\n    require(currentStage == Stages.RoundFourStart);\n    require(roundFourTokensForSale == roundFourTokenSold);\n    currentStage = Stages.RoundFourEnd;\n    tokensPerDollarInCurrentSale = 0;\n        \n    }\n\n\n    function getStage() public view returns (string memory) {\n\n    if (currentStage == Stages.RoundOneStart) return 'Round One Start';\n    else if (currentStage == Stages.RoundOneEnd) return 'Round One End';\n    else if (currentStage == Stages.RoundtwoStart) return 'Round two Start';\n    else if (currentStage == Stages.RoundTwoEnd) return 'Round Two End';\n    else if (currentStage == Stages.RoundThreeStart) return 'Round Three Start';    \n    else if (currentStage == Stages.RoundThreeEnd) return 'Round Three End';   \n    else if (currentStage == Stages.RoundFourStart) return 'Round Four Start';    \n    else if (currentStage == Stages.RoundFourEnd) return 'Round Four End';\n    else if (currentStage == Stages.Pause) return 'paused';\n    else if (currentStage == Stages.CrowdSaleNotStarted) return 'CrowdSale Not Started';    \n\n    }\n    \n\n   /**\n   * @param _beneficiary Address performing the token purchase\n   */\n   function buyTokens(address _beneficiary,uint256 usdCents) CrowdsaleStarted public {\n    require(whitelistedContributors[_beneficiary],'Not white listed');\n    require(Paused != true,'Crowdsale is paused');\n    _preValidatePurchase(_beneficiary,usdCents);\n    uint256 tokens = _getTokenAmount(usdCents);\n    _validateCapLimits(usdCents,tokens);\n    _processPurchase(_beneficiary,tokens);\n    emit TokenPurchase(msg.sender, _beneficiary, usdCents, tokens);\n\n   }\n  \n   /**\n   * @dev Validation of an incoming purchase. Use require statemens to revert state when conditions are not met. Use super to concatenate validations.\n   * @param _usdCents Value in usdincents involved in the purchase\n   */\n   function _preValidatePurchase(address _beneficiary, uint256 _usdCents) internal view { \n\n    if(accrediatedInvestors[_beneficiary] == true)\n    {\n\n        require(_usdCents >= minimumUsdCents && _usdCents <= maximumUsdCentsForAccreditedInvestor,'Either amount is less then minimum or more them maximum for AccreditedInvestor');\n\n    }\n    else if(accrediatedInvestors[_beneficiary] == false){\n\n        require(_usdCents >= minimumUsdCents && _usdCents <= maximumUsdCentsForNonAccreditedInvestor,'Either amount is less then minimum or more them maximum for Non AccreditedInvestor');\n\n    }\n\n    }\n    \n    /**\n    * @dev Validation of the capped restrictions.\n    * @param _cents cents amount\n    */\n\n    function _validateCapLimits(uint256 _cents, uint256 _tokens) internal {\n\n      totalRaisedInCents = totalRaisedInCents.add(_cents);\n      require(totalRaisedInCents <= hardCap,'hardcap is reached');\n\n        if (currentStage == Stages.RoundOneStart) \n        {\n\n         roundOnetokenSold = roundOnetokenSold.add(_tokens);\n         require(roundOnetokenSold <= roundOneTokensForSale);\n\n        }\n        else if (currentStage == Stages.RoundtwoStart) \n\n        {         \n         roundTwoTokenSold = roundTwoTokenSold.add(_tokens);\n         require(roundTwoTokenSold <= roundTwoTokensForSale);}\n        \n        else if (currentStage == Stages.RoundThreeStart)\n\n        {\n\n         roundThreeTokenSold = roundThreeTokenSold.add(_tokens);\n         require(roundThreeTokenSold <= roundOneTokensForSale);}\n\n        else if (currentStage == Stages.RoundFourStart) \n        {\n\n         roundFourTokenSold = roundFourTokenSold.add(_tokens);\n         require(roundFourTokenSold <= roundFourTokensForSale);}\n    \n\n        }\n      \n   \n   \n   /**\n   * @dev Source of tokens. Override this method to modify the way in which the crowdsale ultimately gets and sends its tokens.\n   * @param _beneficiary Address performing the token purchase\n   * @param _tokenAmount Number of tokens to be emitted\n   */\n   function _deliverTokens(address _beneficiary, uint256 _tokenAmount) internal {\n    \n    if(accrediatedInvestors[_beneficiary]){\n        \n    require(token.issueTokens(_beneficiary,_tokenAmount,true),'could not be able to deliver tokens');\n\n    }else{\n\n    require(token.issueTokens(_beneficiary,_tokenAmount,false),'could not be able to deliver tokens');\n        \n    }\n    \n\n   }\n\n   /**\n   * @dev Executed when a purchase has been validated and is ready to be executed. Not necessarily emits/sends tokens.\n   * @param _beneficiary Address receiving the tokens\n   * @param _tokenAmount Number of tokens to be purchased\n   */\n   function _processPurchase(address _beneficiary, uint256 _tokenAmount) internal {\n    _deliverTokens(_beneficiary, _tokenAmount);\n   }\n  \n    /**\n    * @param _usdCents Value in usd cents to be converted into tokens\n    * @return Number of tokens that can be purchased with the specified _usdCents\n    */\n    function _getTokenAmount(uint256 _usdCents) CrowdsaleStarted public view returns (uint256) {\n\n    uint256 tokens;\n\n    tokens = _usdCents.div(100).mul(tokensPerDollarInCurrentSale);\n    return tokens;\n    \n    }\n\n    /**\n    * @dev finalize the crowdsale.After finalizing ,tokens transfer can be done.\n    */\n    function finalizeSale() public  onlyOwner {\n        require(currentStage == Stages.RoundFourEnd);\n        require(token.finalize());\n        \n    }\n\n    //Usd\n\n}\n",
  "sourcePath": "/home/abhi/Projects/backers-test/contracts/Crowdsale.sol",
  "compiler": {
    "name": "solc",
    "version": "0.5.0+commit.1d4f565a.Emscripten.clang"
  },
  "schemaVersion": "3.0.0",
  "updatedAt": "2019-10-03T07:35:02.840Z",
  "devdoc": {
    "methods": {
      "_getTokenAmount(uint256)": {
        "params": {
          "_usdCents": "Value in usd cents to be converted into tokens"
        },
        "return": "Number of tokens that can be purchased with the specified _usdCents"
      },
      "approveAccrediatedInvestors(address[])": {
        "details": "whitelist addresses of investors.",
        "params": {
          "addrs": ",array of addresses of investors to be whitelisted Note:= Array length must be less than 200.process"
        }
      },
      "authorizeKyc(address[])": {
        "details": "whitelist addresses of investors.",
        "params": {
          "addrs": ",array of addresses of investors to be whitelisted Note:= Array length must be less than 200.process"
        }
      },
      "buyTokens(address,uint256)": {
        "params": {
          "_beneficiary": "Address performing the token purchase"
        }
      },
      "constructor": {
        "params": {
          "_newOwner": "Address who has special power to change the ether price in cents according to the market price",
          "_token": "Address of the token being sold",
          "_wallet": "Address where collected funds will be forwarded to"
        }
      },
      "finalizeSale()": {
        "details": "finalize the crowdsale.After finalizing ,tokens transfer can be done."
      },
      "pause()": {
        "details": "calling this function will pause the sale"
      }
    }
  },
  "userdoc": {
    "methods": {
      "constructor": "dev initializes the crowdsale contract "
    }
  }
}